{
  "_format": "hh-sol-artifact-1",
  "contractName": "MediChain",
  "sourceName": "contracts/MediChain.sol",
  "abi": [
    {
      "inputs": [],
      "name": "ReentrancyGuardReentrantCall",
      "type": "error"
    },
    {
      "anonymous": false,
      "inputs": [
        {
          "indexed": true,
          "internalType": "uint256",
          "name": "id",
          "type": "uint256"
        },
        {
          "indexed": true,
          "internalType": "address",
          "name": "owner",
          "type": "address"
        },
        {
          "indexed": false,
          "internalType": "uint256",
          "name": "price",
          "type": "uint256"
        }
      ],
      "name": "DataListed",
      "type": "event"
    },
    {
      "anonymous": false,
      "inputs": [
        {
          "indexed": true,
          "internalType": "uint256",
          "name": "id",
          "type": "uint256"
        },
        {
          "indexed": true,
          "internalType": "address",
          "name": "buyer",
          "type": "address"
        }
      ],
      "name": "DataPurchased",
      "type": "event"
    },
    {
      "anonymous": false,
      "inputs": [
        {
          "indexed": true,
          "internalType": "uint256",
          "name": "id",
          "type": "uint256"
        },
        {
          "indexed": true,
          "internalType": "address",
          "name": "researcher",
          "type": "address"
        }
      ],
      "name": "DataRevoked",
      "type": "event"
    },
    {
      "anonymous": false,
      "inputs": [
        {
          "indexed": true,
          "internalType": "uint256",
          "name": "id",
          "type": "uint256"
        },
        {
          "indexed": true,
          "internalType": "address",
          "name": "oldOwner",
          "type": "address"
        },
        {
          "indexed": true,
          "internalType": "address",
          "name": "newOwner",
          "type": "address"
        }
      ],
      "name": "OwnershipTransferred",
      "type": "event"
    },
    {
      "anonymous": false,
      "inputs": [
        {
          "indexed": true,
          "internalType": "uint256",
          "name": "id",
          "type": "uint256"
        },
        {
          "indexed": false,
          "internalType": "uint256",
          "name": "newPrice",
          "type": "uint256"
        }
      ],
      "name": "PriceUpdated",
      "type": "event"
    },
    {
      "inputs": [],
      "name": "dataCount",
      "outputs": [
        {
          "internalType": "uint256",
          "name": "",
          "type": "uint256"
        }
      ],
      "stateMutability": "view",
      "type": "function"
    },
    {
      "inputs": [
        {
          "internalType": "uint256",
          "name": "_id",
          "type": "uint256"
        }
      ],
      "name": "delistData",
      "outputs": [],
      "stateMutability": "nonpayable",
      "type": "function"
    },
    {
      "inputs": [
        {
          "internalType": "uint256",
          "name": "_id",
          "type": "uint256"
        }
      ],
      "name": "getDataHash",
      "outputs": [
        {
          "internalType": "string",
          "name": "",
          "type": "string"
        }
      ],
      "stateMutability": "view",
      "type": "function"
    },
    {
      "inputs": [
        {
          "internalType": "address",
          "name": "",
          "type": "address"
        },
        {
          "internalType": "uint256",
          "name": "",
          "type": "uint256"
        }
      ],
      "name": "hasAccess",
      "outputs": [
        {
          "internalType": "bool",
          "name": "",
          "type": "bool"
        }
      ],
      "stateMutability": "view",
      "type": "function"
    },
    {
      "inputs": [
        {
          "internalType": "string",
          "name": "_previewHash",
          "type": "string"
        },
        {
          "internalType": "string",
          "name": "_dataHash",
          "type": "string"
        },
        {
          "internalType": "uint256",
          "name": "_price",
          "type": "uint256"
        }
      ],
      "name": "listData",
      "outputs": [],
      "stateMutability": "nonpayable",
      "type": "function"
    },
    {
      "inputs": [
        {
          "internalType": "uint256",
          "name": "",
          "type": "uint256"
        }
      ],
      "name": "medicalRecords",
      "outputs": [
        {
          "internalType": "string",
          "name": "previewHash",
          "type": "string"
        },
        {
          "internalType": "uint256",
          "name": "price",
          "type": "uint256"
        },
        {
          "internalType": "address payable",
          "name": "owner",
          "type": "address"
        },
        {
          "internalType": "bool",
          "name": "isActive",
          "type": "bool"
        }
      ],
      "stateMutability": "view",
      "type": "function"
    },
    {
      "inputs": [
        {
          "internalType": "uint256",
          "name": "_id",
          "type": "uint256"
        }
      ],
      "name": "purchaseData",
      "outputs": [],
      "stateMutability": "payable",
      "type": "function"
    },
    {
      "inputs": [
        {
          "internalType": "uint256",
          "name": "_id",
          "type": "uint256"
        }
      ],
      "name": "relistData",
      "outputs": [],
      "stateMutability": "nonpayable",
      "type": "function"
    },
    {
      "inputs": [
        {
          "internalType": "uint256",
          "name": "_id",
          "type": "uint256"
        },
        {
          "internalType": "address",
          "name": "_researcher",
          "type": "address"
        }
      ],
      "name": "revokeAccess",
      "outputs": [],
      "stateMutability": "nonpayable",
      "type": "function"
    },
    {
      "inputs": [
        {
          "internalType": "address",
          "name": "",
          "type": "address"
        }
      ],
      "name": "totalEarnings",
      "outputs": [
        {
          "internalType": "uint256",
          "name": "",
          "type": "uint256"
        }
      ],
      "stateMutability": "view",
      "type": "function"
    },
    {
      "inputs": [
        {
          "internalType": "uint256",
          "name": "_id",
          "type": "uint256"
        },
        {
          "internalType": "address",
          "name": "_newOwner",
          "type": "address"
        }
      ],
      "name": "transferRecordOwnership",
      "outputs": [],
      "stateMutability": "nonpayable",
      "type": "function"
    },
    {
      "inputs": [
        {
          "internalType": "uint256",
          "name": "_id",
          "type": "uint256"
        },
        {
          "internalType": "uint256",
          "name": "_newPrice",
          "type": "uint256"
        }
      ],
      "name": "updatePrice",
      "outputs": [],
      "stateMutability": "nonpayable",
      "type": "function"
    }
  ],
  "bytecode": "0x6080604052348015600f57600080fd5b506001602a6020603560201b60201c565b606060201b60201c565b60000181905550606a565b60007f9b779b17422d0df92223018b32b4d1fa46e071723d6817e2486d003becc55f0060001b905090565b6000819050919050565b612851806100796000396000f3fe6080604052600436106100a75760003560e01c806384c4f5941161006457806384c4f594146101bb57806385117005146101d7578063a595d8fc14610214578063c6530e4114610251578063d9a5ec1b1461028e578063e69564d8146102b7576100a7565b80635da40c47146100ac5780635fb5b570146100d757806363997e07146101005780637564a13c146101295780637bb5e5221461016957806382367b2d14610192575b600080fd5b3480156100b857600080fd5b506100c16102e0565b6040516100ce9190611660565b60405180910390f35b3480156100e357600080fd5b506100fe60048036038101906100f991906116b1565b6102e6565b005b34801561010c57600080fd5b5061012760048036038101906101229190611743565b61041f565b005b34801561013557600080fd5b50610150600480360381019061014b91906116b1565b61069d565b60405161016094939291906118c4565b60405180910390f35b34801561017557600080fd5b50610190600480360381019061018b919061194e565b610782565b005b34801561019e57600080fd5b506101b960048036038101906101b4919061198e565b6109f3565b005b6101d560048036038101906101d091906116b1565b610b31565b005b3480156101e357600080fd5b506101fe60048036038101906101f991906119ce565b611083565b60405161020b9190611660565b60405180910390f35b34801561022057600080fd5b5061023b600480360381019061023691906116b1565b61109b565b60405161024891906119fb565b60405180910390f35b34801561025d57600080fd5b5061027860048036038101906102739190611a1d565b611249565b6040516102859190611a5d565b60405180910390f35b34801561029a57600080fd5b506102b560048036038101906102b0919061194e565b611278565b005b3480156102c357600080fd5b506102de60048036038101906102d991906116b1565b61143c565b005b60005481565b3373ffffffffffffffffffffffffffffffffffffffff166001600083815260200190815260200160002060020160009054906101000a900473ffffffffffffffffffffffffffffffffffffffff1673ffffffffffffffffffffffffffffffffffffffff161461038a576040517f08c379a000000000000000000000000000000000000000000000000000000000815260040161038190611ac4565b60405180910390fd5b6001600082815260200190815260200160002060020160149054906101000a900460ff16156103ee576040517f08c379a00000000000000000000000000000000000000000000000000000000081526004016103e590611b30565b60405180910390fd5b600180600083815260200190815260200160002060020160146101000a81548160ff02191690831515021790555050565b60008585905011610465576040517f08c379a000000000000000000000000000000000000000000000000000000000815260040161045c90611b9c565b60405180910390fd5b600083839050116104ab576040517f08c379a00000000000000000000000000000000000000000000000000000000081526004016104a290611c08565b60405180910390fd5b600081116104ee576040517f08c379a00000000000000000000000000000000000000000000000000000000081526004016104e590611c74565b60405180910390fd5b60008081548092919061050090611cc3565b9190505550604051806080016040528086868080601f016020809104026020016040519081016040528093929190818152602001838380828437600081840152601f19601f8201169050808301925050505050505081526020018281526020013373ffffffffffffffffffffffffffffffffffffffff16815260200160011515815250600160008054815260200190815260200160002060008201518160000190816105ac9190611f46565b506020820151816001015560408201518160020160006101000a81548173ffffffffffffffffffffffffffffffffffffffff021916908373ffffffffffffffffffffffffffffffffffffffff16021790555060608201518160020160146101000a81548160ff021916908315150217905550905050828260026000805481526020019081526020016000209182610644929190612023565b503373ffffffffffffffffffffffffffffffffffffffff166000547fda6e3f4579b83369067bea5d00c3f6f4ea90ea71243054b08c3c0d93a5a1bae58360405161068e9190611660565b60405180910390a35050505050565b60016020528060005260406000206000915090508060000180546106c090611d69565b80601f01602080910402602001604051908101604052809291908181526020018280546106ec90611d69565b80156107395780601f1061070e57610100808354040283529160200191610739565b820191906000526020600020905b81548152906001019060200180831161071c57829003601f168201915b5050505050908060010154908060020160009054906101000a900473ffffffffffffffffffffffffffffffffffffffff16908060020160149054906101000a900460ff16905084565b3373ffffffffffffffffffffffffffffffffffffffff166001600084815260200190815260200160002060020160009054906101000a900473ffffffffffffffffffffffffffffffffffffffff1673ffffffffffffffffffffffffffffffffffffffff1614610826576040517f08c379a000000000000000000000000000000000000000000000000000000000815260040161081d9061213f565b60405180910390fd5b600073ffffffffffffffffffffffffffffffffffffffff168173ffffffffffffffffffffffffffffffffffffffff1603610895576040517f08c379a000000000000000000000000000000000000000000000000000000000815260040161088c906121ab565b60405180910390fd5b3373ffffffffffffffffffffffffffffffffffffffff168173ffffffffffffffffffffffffffffffffffffffff1603610903576040517f08c379a00000000000000000000000000000000000000000000000000000000081526004016108fa90612217565b60405180910390fd5b60006001600084815260200190815260200160002060020160009054906101000a900473ffffffffffffffffffffffffffffffffffffffff169050816001600085815260200190815260200160002060020160006101000a81548173ffffffffffffffffffffffffffffffffffffffff021916908373ffffffffffffffffffffffffffffffffffffffff1602179055508173ffffffffffffffffffffffffffffffffffffffff168173ffffffffffffffffffffffffffffffffffffffff16847f16b85f49bf01212961345d3016c9a531894accf62eb7680f2045d79185cc0ec060405160405180910390a4505050565b3373ffffffffffffffffffffffffffffffffffffffff166001600084815260200190815260200160002060020160009054906101000a900473ffffffffffffffffffffffffffffffffffffffff1673ffffffffffffffffffffffffffffffffffffffff1614610a97576040517f08c379a0000000000000000000000000000000000000000000000000000000008152600401610a8e906122a9565b60405180910390fd5b60008111610ada576040517f08c379a0000000000000000000000000000000000000000000000000000000008152600401610ad190611c74565b60405180910390fd5b806001600084815260200190815260200160002060010181905550817f945c1c4e99aa89f648fbfe3df471b916f719e16d960fcec0737d4d56bd69683882604051610b259190611660565b60405180910390a25050565b610b39611575565b6000600160008381526020019081526020016000209050600073ffffffffffffffffffffffffffffffffffffffff168160020160009054906101000a900473ffffffffffffffffffffffffffffffffffffffff1673ffffffffffffffffffffffffffffffffffffffff1603610be3576040517f08c379a0000000000000000000000000000000000000000000000000000000008152600401610bda90612315565b60405180910390fd5b8060020160149054906101000a900460ff16610c34576040517f08c379a0000000000000000000000000000000000000000000000000000000008152600401610c2b90612381565b60405180910390fd5b8060010154341015610c7b576040517f08c379a0000000000000000000000000000000000000000000000000000000008152600401610c72906123ed565b60405180910390fd5b600360003373ffffffffffffffffffffffffffffffffffffffff1673ffffffffffffffffffffffffffffffffffffffff168152602001908152602001600020600083815260200190815260200160002060009054906101000a900460ff1615610d19576040517f08c379a0000000000000000000000000000000000000000000000000000000008152600401610d1090612459565b60405180910390fd5b8060020160009054906101000a900473ffffffffffffffffffffffffffffffffffffffff1673ffffffffffffffffffffffffffffffffffffffff163373ffffffffffffffffffffffffffffffffffffffff1603610dab576040517f08c379a0000000000000000000000000000000000000000000000000000000008152600401610da2906124c5565b60405180910390fd5b6001600360003373ffffffffffffffffffffffffffffffffffffffff1673ffffffffffffffffffffffffffffffffffffffff168152602001908152602001600020600084815260200190815260200160002060006101000a81548160ff0219169083151502179055508060010154600460008360020160009054906101000a900473ffffffffffffffffffffffffffffffffffffffff1673ffffffffffffffffffffffffffffffffffffffff1673ffffffffffffffffffffffffffffffffffffffff1681526020019081526020016000206000828254610e8b91906124e5565b9250508190555060008160020160009054906101000a900473ffffffffffffffffffffffffffffffffffffffff1673ffffffffffffffffffffffffffffffffffffffff168260010154604051610ee09061254a565b60006040518083038185875af1925050503d8060008114610f1d576040519150601f19603f3d011682016040523d82523d6000602084013e610f22565b606091505b5050905080610f66576040517f08c379a0000000000000000000000000000000000000000000000000000000008152600401610f5d906125ab565b60405180910390fd5b6000826001015434610f7891906125cb565b905060008111156110315760003373ffffffffffffffffffffffffffffffffffffffff1682604051610fa99061254a565b60006040518083038185875af1925050503d8060008114610fe6576040519150601f19603f3d011682016040523d82523d6000602084013e610feb565b606091505b505090508061102f576040517f08c379a00000000000000000000000000000000000000000000000000000000081526004016110269061264b565b60405180910390fd5b505b3373ffffffffffffffffffffffffffffffffffffffff16847f492df9b9267b3a3ce5c292986f3b886f121fd4ce5835f98cdbcf36977fe62df860405160405180910390a3505050611080611598565b50565b60046020528060005260406000206000915090505481565b6060600360003373ffffffffffffffffffffffffffffffffffffffff1673ffffffffffffffffffffffffffffffffffffffff168152602001908152602001600020600083815260200190815260200160002060009054906101000a900460ff168061116757503373ffffffffffffffffffffffffffffffffffffffff166001600084815260200190815260200160002060020160009054906101000a900473ffffffffffffffffffffffffffffffffffffffff1673ffffffffffffffffffffffffffffffffffffffff16145b6111a6576040517f08c379a000000000000000000000000000000000000000000000000000000000815260040161119d906126b7565b60405180910390fd5b6002600083815260200190815260200160002080546111c490611d69565b80601f01602080910402602001604051908101604052809291908181526020018280546111f090611d69565b801561123d5780601f106112125761010080835404028352916020019161123d565b820191906000526020600020905b81548152906001019060200180831161122057829003601f168201915b50505050509050919050565b60036020528160005260406000206020528060005260406000206000915091509054906101000a900460ff1681565b3373ffffffffffffffffffffffffffffffffffffffff166001600084815260200190815260200160002060020160009054906101000a900473ffffffffffffffffffffffffffffffffffffffff1673ffffffffffffffffffffffffffffffffffffffff161461131c576040517f08c379a000000000000000000000000000000000000000000000000000000000815260040161131390612723565b60405180910390fd5b600073ffffffffffffffffffffffffffffffffffffffff168173ffffffffffffffffffffffffffffffffffffffff160361138b576040517f08c379a0000000000000000000000000000000000000000000000000000000008152600401611382906121ab565b60405180910390fd5b6000600360008373ffffffffffffffffffffffffffffffffffffffff1673ffffffffffffffffffffffffffffffffffffffff168152602001908152602001600020600084815260200190815260200160002060006101000a81548160ff0219169083151502179055508073ffffffffffffffffffffffffffffffffffffffff16827f1ab14d3b5d4dc6b1ab40340511c6fe04291c1ef991440ea96636779ea9413e9260405160405180910390a35050565b3373ffffffffffffffffffffffffffffffffffffffff166001600083815260200190815260200160002060020160009054906101000a900473ffffffffffffffffffffffffffffffffffffffff1673ffffffffffffffffffffffffffffffffffffffff16146114e0576040517f08c379a00000000000000000000000000000000000000000000000000000000081526004016114d79061278f565b60405180910390fd5b6001600082815260200190815260200160002060020160149054906101000a900460ff16611543576040517f08c379a000000000000000000000000000000000000000000000000000000000815260040161153a906127fb565b60405180910390fd5b60006001600083815260200190815260200160002060020160146101000a81548160ff02191690831515021790555050565b61157d6115b3565b600261158f61158a6115f4565b61161f565b60000181905550565b60016115aa6115a56115f4565b61161f565b60000181905550565b6115bb611629565b156115f2576040517f3ee5aeb500000000000000000000000000000000000000000000000000000000815260040160405180910390fd5b565b60007f9b779b17422d0df92223018b32b4d1fa46e071723d6817e2486d003becc55f0060001b905090565b6000819050919050565b6000600261163d6116386115f4565b61161f565b6000015414905090565b6000819050919050565b61165a81611647565b82525050565b60006020820190506116756000830184611651565b92915050565b600080fd5b600080fd5b61168e81611647565b811461169957600080fd5b50565b6000813590506116ab81611685565b92915050565b6000602082840312156116c7576116c661167b565b5b60006116d58482850161169c565b91505092915050565b600080fd5b600080fd5b600080fd5b60008083601f840112611703576117026116de565b5b8235905067ffffffffffffffff8111156117205761171f6116e3565b5b60208301915083600182028301111561173c5761173b6116e8565b5b9250929050565b60008060008060006060868803121561175f5761175e61167b565b5b600086013567ffffffffffffffff81111561177d5761177c611680565b5b611789888289016116ed565b9550955050602086013567ffffffffffffffff8111156117ac576117ab611680565b5b6117b8888289016116ed565b935093505060406117cb8882890161169c565b9150509295509295909350565b600081519050919050565b600082825260208201905092915050565b60005b838110156118125780820151818401526020810190506117f7565b60008484015250505050565b6000601f19601f8301169050919050565b600061183a826117d8565b61184481856117e3565b93506118548185602086016117f4565b61185d8161181e565b840191505092915050565b600073ffffffffffffffffffffffffffffffffffffffff82169050919050565b600061189382611868565b9050919050565b6118a381611888565b82525050565b60008115159050919050565b6118be816118a9565b82525050565b600060808201905081810360008301526118de818761182f565b90506118ed6020830186611651565b6118fa604083018561189a565b61190760608301846118b5565b95945050505050565b600061191b82611868565b9050919050565b61192b81611910565b811461193657600080fd5b50565b60008135905061194881611922565b92915050565b600080604083850312156119655761196461167b565b5b60006119738582860161169c565b925050602061198485828601611939565b9150509250929050565b600080604083850312156119a5576119a461167b565b5b60006119b38582860161169c565b92505060206119c48582860161169c565b9150509250929050565b6000602082840312156119e4576119e361167b565b5b60006119f284828501611939565b91505092915050565b60006020820190508181036000830152611a15818461182f565b905092915050565b60008060408385031215611a3457611a3361167b565b5b6000611a4285828601611939565b9250506020611a538582860161169c565b9150509250929050565b6000602082019050611a7260008301846118b5565b92915050565b7f53616465636520736168697020616b7469662065646562696c69720000000000600082015250565b6000611aae601b836117e3565b9150611ab982611a78565b602082019050919050565b60006020820190508181036000830152611add81611aa1565b9050919050565b7f5a6174656e20616b746966000000000000000000000000000000000000000000600082015250565b6000611b1a600b836117e3565b9150611b2582611ae4565b602082019050919050565b60006020820190508181036000830152611b4981611b0d565b9050919050565b7f4f6e697a6c656d65206861736820626f73206f6c616d617a0000000000000000600082015250565b6000611b866018836117e3565b9150611b9182611b50565b602082019050919050565b60006020820190508181036000830152611bb581611b79565b9050919050565b7f56657269206861736820626f73206f6c616d617a000000000000000000000000600082015250565b6000611bf26014836117e3565b9150611bfd82611bbc565b602082019050919050565b60006020820190508181036000830152611c2181611be5565b9050919050565b7f466979617420736966697264616e20627579756b206f6c6d616c690000000000600082015250565b6000611c5e601b836117e3565b9150611c6982611c28565b602082019050919050565b60006020820190508181036000830152611c8d81611c51565b9050919050565b7f4e487b7100000000000000000000000000000000000000000000000000000000600052601160045260246000fd5b6000611cce82611647565b91507fffffffffffffffffffffffffffffffffffffffffffffffffffffffffffffffff8203611d0057611cff611c94565b5b600182019050919050565b7f4e487b7100000000000000000000000000000000000000000000000000000000600052604160045260246000fd5b7f4e487b7100000000000000000000000000000000000000000000000000000000600052602260045260246000fd5b60006002820490506001821680611d8157607f821691505b602082108103611d9457611d93611d3a565b5b50919050565b60008190508160005260206000209050919050565b60006020601f8301049050919050565b600082821b905092915050565b600060088302611dfc7fffffffffffffffffffffffffffffffffffffffffffffffffffffffffffffffff82611dbf565b611e068683611dbf565b95508019841693508086168417925050509392505050565b6000819050919050565b6000611e43611e3e611e3984611647565b611e1e565b611647565b9050919050565b6000819050919050565b611e5d83611e28565b611e71611e6982611e4a565b848454611dcc565b825550505050565b600090565b611e86611e79565b611e91818484611e54565b505050565b5b81811015611eb557611eaa600082611e7e565b600181019050611e97565b5050565b601f821115611efa57611ecb81611d9a565b611ed484611daf565b81016020851015611ee3578190505b611ef7611eef85611daf565b830182611e96565b50505b505050565b600082821c905092915050565b6000611f1d60001984600802611eff565b1980831691505092915050565b6000611f368383611f0c565b9150826002028217905092915050565b611f4f826117d8565b67ffffffffffffffff811115611f6857611f67611d0b565b5b611f728254611d69565b611f7d828285611eb9565b600060209050601f831160018114611fb05760008415611f9e578287015190505b611fa88582611f2a565b865550612010565b601f198416611fbe86611d9a565b60005b82811015611fe657848901518255600182019150602085019450602081019050611fc1565b868310156120035784890151611fff601f891682611f0c565b8355505b6001600288020188555050505b505050505050565b600082905092915050565b61202d8383612018565b67ffffffffffffffff81111561204657612045611d0b565b5b6120508254611d69565b61205b828285611eb9565b6000601f83116001811461208a5760008415612078578287013590505b6120828582611f2a565b8655506120ea565b601f19841661209886611d9a565b60005b828110156120c05784890135825560018201915060208501945060208101905061209b565b868310156120dd57848901356120d9601f891682611f0c565b8355505b6001600288020188555050505b50505050505050565b7f536164656365207361686970206465767265646562696c697200000000000000600082015250565b60006121296019836117e3565b9150612134826120f3565b602082019050919050565b600060208201905081810360008301526121588161211c565b9050919050565b7f476563657273697a206164726573000000000000000000000000000000000000600082015250565b6000612195600e836117e3565b91506121a08261215f565b602082019050919050565b600060208201905081810360008301526121c481612188565b9050919050565b7f5a6174656e20736168697073696e697a00000000000000000000000000000000600082015250565b60006122016010836117e3565b915061220c826121cb565b602082019050919050565b60006020820190508181036000830152612230816121f4565b9050919050565b7f5361646563652073616869702066697961742067756e63656c6c65796562696c60008201527f6972000000000000000000000000000000000000000000000000000000000000602082015250565b60006122936022836117e3565b915061229e82612237565b604082019050919050565b600060208201905081810360008301526122c281612286565b9050919050565b7f4b61796974206d657663757420646567696c0000000000000000000000000000600082015250565b60006122ff6012836117e3565b915061230a826122c9565b602082019050919050565b6000602082019050818103600083015261232e816122f2565b9050919050565b7f42752076657269207361746973746120646567696c0000000000000000000000600082015250565b600061236b6015836117e3565b915061237682612335565b602082019050919050565b6000602082019050818103600083015261239a8161235e565b9050919050565b7f596574657273697a206f64656d65000000000000000000000000000000000000600082015250565b60006123d7600e836117e3565b91506123e2826123a1565b602082019050919050565b60006020820190508181036000830152612406816123ca565b9050919050565b7f5a6174656e2065726973696d2076617200000000000000000000000000000000600082015250565b60006124436010836117e3565b915061244e8261240d565b602082019050919050565b6000602082019050818103600083015261247281612436565b9050919050565b7f4b656e6469206b617964696e6920736174696e20616c616d617a73696e000000600082015250565b60006124af601d836117e3565b91506124ba82612479565b602082019050919050565b600060208201905081810360008301526124de816124a2565b9050919050565b60006124f082611647565b91506124fb83611647565b925082820190508082111561251357612512611c94565b5b92915050565b600081905092915050565b50565b6000612534600083612519565b915061253f82612524565b600082019050919050565b600061255582612527565b9150819050919050565b7f4f64656d652062617361726973697a0000000000000000000000000000000000600082015250565b6000612595600f836117e3565b91506125a08261255f565b602082019050919050565b600060208201905081810360008301526125c481612588565b9050919050565b60006125d682611647565b91506125e183611647565b92508282039050818111156125f9576125f8611c94565b5b92915050565b7f496164652062617361726973697a000000000000000000000000000000000000600082015250565b6000612635600e836117e3565b9150612640826125ff565b602082019050919050565b6000602082019050818103600083015261266481612628565b9050919050565b7f45726973696d20697a6e696e697a20796f6b0000000000000000000000000000600082015250565b60006126a16012836117e3565b91506126ac8261266b565b602082019050919050565b600060208201905081810360008301526126d081612694565b9050919050565b7f53616465636520736168697020697074616c2065646562696c69720000000000600082015250565b600061270d601b836117e3565b9150612718826126d7565b602082019050919050565b6000602082019050818103600083015261273c81612700565b9050919050565b7f536164656365207361686970206b616c6469726162696c697300000000000000600082015250565b60006127796019836117e3565b915061278482612743565b602082019050919050565b600060208201905081810360008301526127a88161276c565b9050919050565b7f5a6174656e207061736966000000000000000000000000000000000000000000600082015250565b60006127e5600b836117e3565b91506127f0826127af565b602082019050919050565b60006020820190508181036000830152612814816127d8565b905091905056fea264697066735822122054c64978c85fbe771c4408e6ffcf176ca17a78364c62a63271c03620a643f3a064736f6c634300081c0033",
  "linkReferences": {},
  "deployedLinkReferences": {}
}